{
	"contracts/FundMe.sol": {
		"FundMe": {
			"abi": [
				{
					"inputs": [
						{
							"internalType": "address",
							"name": "",
							"type": "address"
						}
					],
					"name": "addressToAmountFunded",
					"outputs": [
						{
							"internalType": "uint256",
							"name": "",
							"type": "uint256"
						}
					],
					"stateMutability": "view",
					"type": "function"
				},
				{
					"inputs": [],
					"name": "fund",
					"outputs": [],
					"stateMutability": "payable",
					"type": "function"
				},
				{
					"inputs": [
						{
							"internalType": "uint256",
							"name": "",
							"type": "uint256"
						}
					],
					"name": "funders",
					"outputs": [
						{
							"internalType": "address",
							"name": "",
							"type": "address"
						}
					],
					"stateMutability": "view",
					"type": "function"
				},
				{
					"inputs": [],
					"name": "minimumUsd",
					"outputs": [
						{
							"internalType": "uint256",
							"name": "",
							"type": "uint256"
						}
					],
					"stateMutability": "view",
					"type": "function"
				},
				{
					"inputs": [],
					"name": "withdraw",
					"outputs": [],
					"stateMutability": "nonpayable",
					"type": "function"
				}
			],
			"devdoc": {
				"kind": "dev",
				"methods": {},
				"version": 1
			},
			"evm": {
				"assembly": "    /* \"contracts/FundMe.sol\":195:3303  contract FundMe {... */\n  mstore(0x40, 0x80)\n    /* \"contracts/FundMe.sol\":287:296  50 * 1e18 */\n  0x02b5e3af16b1880000\n    /* \"contracts/FundMe.sol\":259:296  uint256 public minimumUsd = 50 * 1e18 */\n  0x00\n  sstore\n    /* \"contracts/FundMe.sol\":195:3303  contract FundMe {... */\n  callvalue\n  dup1\n  iszero\n  tag_1\n  jumpi\n  0x00\n  dup1\n  revert\ntag_1:\n  pop\n  dataSize(sub_0)\n  dup1\n  dataOffset(sub_0)\n  0x00\n  codecopy\n  0x00\n  return\nstop\n\nsub_0: assembly {\n        /* \"contracts/FundMe.sol\":195:3303  contract FundMe {... */\n      mstore(0x40, 0x80)\n      jumpi(tag_1, lt(calldatasize, 0x04))\n      shr(0xe0, calldataload(0x00))\n      dup1\n      0x098de820\n      eq\n      tag_2\n      jumpi\n      dup1\n      0x3ccfd60b\n      eq\n      tag_3\n      jumpi\n      dup1\n      0x3e47d6f3\n      eq\n      tag_4\n      jumpi\n      dup1\n      0xb60d4288\n      eq\n      tag_5\n      jumpi\n      dup1\n      0xdc0d3dff\n      eq\n      tag_6\n      jumpi\n    tag_1:\n      0x00\n      dup1\n      revert\n        /* \"contracts/FundMe.sol\":259:296  uint256 public minimumUsd = 50 * 1e18 */\n    tag_2:\n      callvalue\n      dup1\n      iszero\n      tag_7\n      jumpi\n      0x00\n      dup1\n      revert\n    tag_7:\n      pop\n      tag_8\n      tag_9\n      jump\t// in\n    tag_8:\n      mload(0x40)\n      tag_10\n      swap2\n      swap1\n      tag_11\n      jump\t// in\n    tag_10:\n      mload(0x40)\n      dup1\n      swap2\n      sub\n      swap1\n      return\n        /* \"contracts/FundMe.sol\":2257:2589  function withdraw() public {... */\n    tag_3:\n      callvalue\n      dup1\n      iszero\n      tag_12\n      jumpi\n      0x00\n      dup1\n      revert\n    tag_12:\n      pop\n      tag_13\n      tag_14\n      jump\t// in\n    tag_13:\n      stop\n        /* \"contracts/FundMe.sol\":384:438  mapping(address=>uint256) public addressToAmountFunded */\n    tag_4:\n      callvalue\n      dup1\n      iszero\n      tag_15\n      jumpi\n      0x00\n      dup1\n      revert\n    tag_15:\n      pop\n      tag_16\n      0x04\n      dup1\n      calldatasize\n      sub\n      dup2\n      add\n      swap1\n      tag_17\n      swap2\n      swap1\n      tag_18\n      jump\t// in\n    tag_17:\n      tag_19\n      jump\t// in\n    tag_16:\n      mload(0x40)\n      tag_20\n      swap2\n      swap1\n      tag_11\n      jump\t// in\n    tag_20:\n      mload(0x40)\n      dup1\n      swap2\n      sub\n      swap1\n      return\n        /* \"contracts/FundMe.sol\":457:1139  function fund() public payable {    // payable make this function able to fund ..It wil mark as red ... */\n    tag_5:\n      tag_21\n      tag_22\n      jump\t// in\n    tag_21:\n      stop\n        /* \"contracts/FundMe.sol\":303:327  address[] public funders */\n    tag_6:\n      callvalue\n      dup1\n      iszero\n      tag_23\n      jumpi\n      0x00\n      dup1\n      revert\n    tag_23:\n      pop\n      tag_24\n      0x04\n      dup1\n      calldatasize\n      sub\n      dup2\n      add\n      swap1\n      tag_25\n      swap2\n      swap1\n      tag_26\n      jump\t// in\n    tag_25:\n      tag_27\n      jump\t// in\n    tag_24:\n      mload(0x40)\n      tag_28\n      swap2\n      swap1\n      tag_29\n      jump\t// in\n    tag_28:\n      mload(0x40)\n      dup1\n      swap2\n      sub\n      swap1\n      return\n        /* \"contracts/FundMe.sol\":259:296  uint256 public minimumUsd = 50 * 1e18 */\n    tag_9:\n      sload(0x00)\n      dup2\n      jump\t// out\n        /* \"contracts/FundMe.sol\":2257:2589  function withdraw() public {... */\n    tag_14:\n        /* \"contracts/FundMe.sol\":2368:2387  uint256 funderIndex */\n      0x00\n        /* \"contracts/FundMe.sol\":2364:2581  for(uint256 funderIndex = 0; funderIndex<funders.length ; funderIndex++)... */\n    tag_31:\n        /* \"contracts/FundMe.sol\":2405:2412  funders */\n      0x01\n        /* \"contracts/FundMe.sol\":2405:2419  funders.length */\n      dup1\n      sload\n      swap1\n      pop\n        /* \"contracts/FundMe.sol\":2393:2404  funderIndex */\n      dup2\n        /* \"contracts/FundMe.sol\":2393:2419  funderIndex<funders.length */\n      lt\n        /* \"contracts/FundMe.sol\":2364:2581  for(uint256 funderIndex = 0; funderIndex<funders.length ; funderIndex++)... */\n      iszero\n      tag_32\n      jumpi\n        /* \"contracts/FundMe.sol\":2472:2486  address funder */\n      0x00\n        /* \"contracts/FundMe.sol\":2489:2496  funders */\n      0x01\n        /* \"contracts/FundMe.sol\":2497:2508  funderIndex */\n      dup3\n        /* \"contracts/FundMe.sol\":2489:2509  funders[funderIndex] */\n      dup2\n      sload\n      dup2\n      lt\n      tag_34\n      jumpi\n      tag_35\n      tag_36\n      jump\t// in\n    tag_35:\n    tag_34:\n      swap1\n      0x00\n      mstore\n      keccak256(0x00, 0x20)\n      add\n      0x00\n      swap1\n      sload\n      swap1\n      0x0100\n      exp\n      swap1\n      div\n      0xffffffffffffffffffffffffffffffffffffffff\n      and\n        /* \"contracts/FundMe.sol\":2472:2509  address funder = funders[funderIndex] */\n      swap1\n      pop\n        /* \"contracts/FundMe.sol\":2563:2564  0 */\n      0x00\n        /* \"contracts/FundMe.sol\":2531:2552  addressToAmountFunded */\n      0x02\n        /* \"contracts/FundMe.sol\":2531:2560  addressToAmountFunded[funder] */\n      0x00\n        /* \"contracts/FundMe.sol\":2553:2559  funder */\n      dup4\n        /* \"contracts/FundMe.sol\":2531:2560  addressToAmountFunded[funder] */\n      0xffffffffffffffffffffffffffffffffffffffff\n      and\n      0xffffffffffffffffffffffffffffffffffffffff\n      and\n      dup2\n      mstore\n      0x20\n      add\n      swap1\n      dup2\n      mstore\n      0x20\n      add\n      0x00\n      keccak256\n        /* \"contracts/FundMe.sol\":2531:2564  addressToAmountFunded[funder] = 0 */\n      dup2\n      swap1\n      sstore\n      pop\n        /* \"contracts/FundMe.sol\":2451:2581  {... */\n      pop\n        /* \"contracts/FundMe.sol\":2422:2435  funderIndex++ */\n      dup1\n      dup1\n      tag_38\n      swap1\n      tag_39\n      jump\t// in\n    tag_38:\n      swap2\n      pop\n      pop\n        /* \"contracts/FundMe.sol\":2364:2581  for(uint256 funderIndex = 0; funderIndex<funders.length ; funderIndex++)... */\n      jump(tag_31)\n    tag_32:\n      pop\n        /* \"contracts/FundMe.sol\":2257:2589  function withdraw() public {... */\n      jump\t// out\n        /* \"contracts/FundMe.sol\":384:438  mapping(address=>uint256) public addressToAmountFunded */\n    tag_19:\n      mstore(0x20, 0x02)\n      dup1\n      0x00\n      mstore\n      keccak256(0x00, 0x40)\n      0x00\n      swap2\n      pop\n      swap1\n      pop\n      sload\n      dup2\n      jump\t// out\n        /* \"contracts/FundMe.sol\":457:1139  function fund() public payable {    // payable make this function able to fund ..It wil mark as red ... */\n    tag_22:\n        /* \"contracts/FundMe.sol\":784:794  minimumUsd */\n      sload(0x00)\n        /* \"contracts/FundMe.sol\":751:780  msg.value.getConversionRate() */\n      tag_41\n        /* \"contracts/FundMe.sol\":751:760  msg.value */\n      callvalue\n        /* \"contracts/FundMe.sol\":751:778  msg.value.getConversionRate */\n      tag_42\n        /* \"contracts/FundMe.sol\":751:780  msg.value.getConversionRate() */\n      jump\t// in\n    tag_41:\n        /* \"contracts/FundMe.sol\":751:794  msg.value.getConversionRate() >= minimumUsd */\n      lt\n      iszero\n        /* \"contracts/FundMe.sol\":742:817  require( msg.value.getConversionRate() >= minimumUsd, \"Fund is not enough\") */\n      tag_43\n      jumpi\n      mload(0x40)\n      0x08c379a000000000000000000000000000000000000000000000000000000000\n      dup2\n      mstore\n      0x04\n      add\n      tag_44\n      swap1\n      tag_45\n      jump\t// in\n    tag_44:\n      mload(0x40)\n      dup1\n      swap2\n      sub\n      swap1\n      revert\n    tag_43:\n        /* \"contracts/FundMe.sol\":896:903  funders */\n      0x01\n        /* \"contracts/FundMe.sol\":909:919  msg.sender */\n      caller\n        /* \"contracts/FundMe.sol\":896:920  funders.push(msg.sender) */\n      swap1\n      dup1\n      0x01\n      dup2\n      sload\n      add\n      dup1\n      dup3\n      sstore\n      dup1\n      swap2\n      pop\n      pop\n      0x01\n      swap1\n      sub\n      swap1\n      0x00\n      mstore\n      keccak256(0x00, 0x20)\n      add\n      0x00\n      swap1\n      swap2\n      swap1\n      swap2\n      swap1\n      swap2\n      0x0100\n      exp\n      dup2\n      sload\n      dup2\n      0xffffffffffffffffffffffffffffffffffffffff\n      mul\n      not\n      and\n      swap1\n      dup4\n      0xffffffffffffffffffffffffffffffffffffffff\n      and\n      mul\n      or\n      swap1\n      sstore\n      pop\n        /* \"contracts/FundMe.sol\":1029:1038  msg.value */\n      callvalue\n        /* \"contracts/FundMe.sol\":993:1014  addressToAmountFunded */\n      0x02\n        /* \"contracts/FundMe.sol\":993:1026  addressToAmountFunded[msg.sender] */\n      0x00\n        /* \"contracts/FundMe.sol\":1015:1025  msg.sender */\n      caller\n        /* \"contracts/FundMe.sol\":993:1026  addressToAmountFunded[msg.sender] */\n      0xffffffffffffffffffffffffffffffffffffffff\n      and\n      0xffffffffffffffffffffffffffffffffffffffff\n      and\n      dup2\n      mstore\n      0x20\n      add\n      swap1\n      dup2\n      mstore\n      0x20\n      add\n      0x00\n      keccak256\n      0x00\n        /* \"contracts/FundMe.sol\":993:1038  addressToAmountFunded[msg.sender]+= msg.value */\n      dup3\n      dup3\n      sload\n      tag_47\n      swap2\n      swap1\n      tag_48\n      jump\t// in\n    tag_47:\n      swap3\n      pop\n      pop\n      dup2\n      swap1\n      sstore\n      pop\n        /* \"contracts/FundMe.sol\":457:1139  function fund() public payable {    // payable make this function able to fund ..It wil mark as red ... */\n      jump\t// out\n        /* \"contracts/FundMe.sol\":303:327  address[] public funders */\n    tag_27:\n      0x01\n      dup2\n      dup2\n      sload\n      dup2\n      lt\n      tag_49\n      jumpi\n      0x00\n      dup1\n      revert\n    tag_49:\n      swap1\n      0x00\n      mstore\n      keccak256(0x00, 0x20)\n      add\n      0x00\n      swap2\n      pop\n      sload\n      swap1\n      0x0100\n      exp\n      swap1\n      div\n      0xffffffffffffffffffffffffffffffffffffffff\n      and\n      dup2\n      jump\t// out\n        /* \"contracts/PriceConverter.sol\":919:1253  function getConversionRate(uint256 ethAmount) internal view returns(uint256){... */\n    tag_42:\n        /* \"contracts/PriceConverter.sol\":987:994  uint256 */\n      0x00\n        /* \"contracts/PriceConverter.sol\":1007:1023  uint256 ethPrice */\n      dup1\n        /* \"contracts/PriceConverter.sol\":1026:1036  getPrice() */\n      tag_52\n        /* \"contracts/PriceConverter.sol\":1026:1034  getPrice */\n      tag_53\n        /* \"contracts/PriceConverter.sol\":1026:1036  getPrice() */\n      jump\t// in\n    tag_52:\n        /* \"contracts/PriceConverter.sol\":1007:1036  uint256 ethPrice = getPrice() */\n      swap1\n      pop\n        /* \"contracts/PriceConverter.sol\":1160:1182  uint256 ethAmountInUsd */\n      0x00\n        /* \"contracts/PriceConverter.sol\":1208:1212  1e18 */\n      0x0de0b6b3a7640000\n        /* \"contracts/PriceConverter.sol\":1195:1204  ethAmount */\n      dup5\n        /* \"contracts/PriceConverter.sol\":1186:1194  ethPrice */\n      dup4\n        /* \"contracts/PriceConverter.sol\":1186:1204  ethPrice*ethAmount */\n      tag_54\n      swap2\n      swap1\n      tag_55\n      jump\t// in\n    tag_54:\n        /* \"contracts/PriceConverter.sol\":1185:1212  (ethPrice*ethAmount) / 1e18 */\n      tag_56\n      swap2\n      swap1\n      tag_57\n      jump\t// in\n    tag_56:\n        /* \"contracts/PriceConverter.sol\":1160:1212  uint256 ethAmountInUsd = (ethPrice*ethAmount) / 1e18 */\n      swap1\n      pop\n        /* \"contracts/PriceConverter.sol\":1231:1245  ethAmountInUsd */\n      dup1\n        /* \"contracts/PriceConverter.sol\":1224:1245  return ethAmountInUsd */\n      swap3\n      pop\n      pop\n      pop\n        /* \"contracts/PriceConverter.sol\":919:1253  function getConversionRate(uint256 ethAmount) internal view returns(uint256){... */\n      swap2\n      swap1\n      pop\n      jump\t// out\n        /* \"contracts/PriceConverter.sol\":207:678  function getPrice() internal view returns(uint256) {... */\n    tag_53:\n        /* \"contracts/PriceConverter.sol\":249:256  uint256 */\n      0x00\n        /* \"contracts/PriceConverter.sol\":397:428  AggregatorV3Interface priceFeed */\n      dup1\n        /* \"contracts/PriceConverter.sol\":453:495  0xD4a33860578De61DBAbDc8BFdb98FD742fA7028e */\n      0xd4a33860578de61dbabdc8bfdb98fd742fa7028e\n        /* \"contracts/PriceConverter.sol\":397:496  AggregatorV3Interface priceFeed = AggregatorV3Interface(0xD4a33860578De61DBAbDc8BFdb98FD742fA7028e) */\n      swap1\n      pop\n        /* \"contracts/PriceConverter.sol\":510:522  int256 price */\n      0x00\n        /* \"contracts/PriceConverter.sol\":527:536  priceFeed */\n      dup2\n        /* \"contracts/PriceConverter.sol\":527:552  priceFeed.latestRoundData */\n      0xffffffffffffffffffffffffffffffffffffffff\n      and\n      0xfeaf968c\n        /* \"contracts/PriceConverter.sol\":527:554  priceFeed.latestRoundData() */\n      mload(0x40)\n      dup2\n      0xffffffff\n      and\n      0xe0\n      shl\n      dup2\n      mstore\n      0x04\n      add\n      0xa0\n      mload(0x40)\n      dup1\n      dup4\n      sub\n      dup2\n      dup7\n      gas\n      staticcall\n      iszero\n      dup1\n      iszero\n      tag_60\n      jumpi\n      returndatasize\n      0x00\n      dup1\n      returndatacopy\n      revert(0x00, returndatasize)\n    tag_60:\n      pop\n      pop\n      pop\n      pop\n      mload(0x40)\n      returndatasize\n      not(0x1f)\n      0x1f\n      dup3\n      add\n      and\n      dup3\n      add\n      dup1\n      0x40\n      mstore\n      pop\n      dup2\n      add\n      swap1\n      tag_61\n      swap2\n      swap1\n      tag_62\n      jump\t// in\n    tag_61:\n        /* \"contracts/PriceConverter.sol\":507:554  (, int256 price,,,)=priceFeed.latestRoundData() */\n      pop\n      pop\n      pop\n      swap2\n      pop\n      pop\n        /* \"contracts/PriceConverter.sol\":656:660  1e10 */\n      0x02540be400\n        /* \"contracts/PriceConverter.sol\":650:655  price */\n      dup2\n        /* \"contracts/PriceConverter.sol\":650:660  price*1e10 */\n      tag_63\n      swap2\n      swap1\n      tag_64\n      jump\t// in\n    tag_63:\n        /* \"contracts/PriceConverter.sol\":635:661  return uint256(price*1e10) */\n      swap3\n      pop\n      pop\n      pop\n        /* \"contracts/PriceConverter.sol\":207:678  function getPrice() internal view returns(uint256) {... */\n      swap1\n      jump\t// out\n        /* \"#utility.yul\":7:84   */\n    tag_65:\n        /* \"#utility.yul\":44:51   */\n      0x00\n        /* \"#utility.yul\":73:78   */\n      dup2\n        /* \"#utility.yul\":62:78   */\n      swap1\n      pop\n        /* \"#utility.yul\":7:84   */\n      swap2\n      swap1\n      pop\n      jump\t// out\n        /* \"#utility.yul\":90:208   */\n    tag_66:\n        /* \"#utility.yul\":177:201   */\n      tag_92\n        /* \"#utility.yul\":195:200   */\n      dup2\n        /* \"#utility.yul\":177:201   */\n      tag_65\n      jump\t// in\n    tag_92:\n        /* \"#utility.yul\":172:175   */\n      dup3\n        /* \"#utility.yul\":165:202   */\n      mstore\n        /* \"#utility.yul\":90:208   */\n      pop\n      pop\n      jump\t// out\n        /* \"#utility.yul\":214:436   */\n    tag_11:\n        /* \"#utility.yul\":307:311   */\n      0x00\n        /* \"#utility.yul\":345:347   */\n      0x20\n        /* \"#utility.yul\":334:343   */\n      dup3\n        /* \"#utility.yul\":330:348   */\n      add\n        /* \"#utility.yul\":322:348   */\n      swap1\n      pop\n        /* \"#utility.yul\":358:429   */\n      tag_94\n        /* \"#utility.yul\":426:427   */\n      0x00\n        /* \"#utility.yul\":415:424   */\n      dup4\n        /* \"#utility.yul\":411:428   */\n      add\n        /* \"#utility.yul\":402:408   */\n      dup5\n        /* \"#utility.yul\":358:429   */\n      tag_66\n      jump\t// in\n    tag_94:\n        /* \"#utility.yul\":214:436   */\n      swap3\n      swap2\n      pop\n      pop\n      jump\t// out\n        /* \"#utility.yul\":523:640   */\n    tag_68:\n        /* \"#utility.yul\":632:633   */\n      0x00\n        /* \"#utility.yul\":629:630   */\n      dup1\n        /* \"#utility.yul\":622:634   */\n      revert\n        /* \"#utility.yul\":769:895   */\n    tag_70:\n        /* \"#utility.yul\":806:813   */\n      0x00\n        /* \"#utility.yul\":846:888   */\n      0xffffffffffffffffffffffffffffffffffffffff\n        /* \"#utility.yul\":839:844   */\n      dup3\n        /* \"#utility.yul\":835:889   */\n      and\n        /* \"#utility.yul\":824:889   */\n      swap1\n      pop\n        /* \"#utility.yul\":769:895   */\n      swap2\n      swap1\n      pop\n      jump\t// out\n        /* \"#utility.yul\":901:997   */\n    tag_71:\n        /* \"#utility.yul\":938:945   */\n      0x00\n        /* \"#utility.yul\":967:991   */\n      tag_100\n        /* \"#utility.yul\":985:990   */\n      dup3\n        /* \"#utility.yul\":967:991   */\n      tag_70\n      jump\t// in\n    tag_100:\n        /* \"#utility.yul\":956:991   */\n      swap1\n      pop\n        /* \"#utility.yul\":901:997   */\n      swap2\n      swap1\n      pop\n      jump\t// out\n        /* \"#utility.yul\":1003:1125   */\n    tag_72:\n        /* \"#utility.yul\":1076:1100   */\n      tag_102\n        /* \"#utility.yul\":1094:1099   */\n      dup2\n        /* \"#utility.yul\":1076:1100   */\n      tag_71\n      jump\t// in\n    tag_102:\n        /* \"#utility.yul\":1069:1074   */\n      dup2\n        /* \"#utility.yul\":1066:1101   */\n      eq\n        /* \"#utility.yul\":1056:1119   */\n      tag_103\n      jumpi\n        /* \"#utility.yul\":1115:1116   */\n      0x00\n        /* \"#utility.yul\":1112:1113   */\n      dup1\n        /* \"#utility.yul\":1105:1117   */\n      revert\n        /* \"#utility.yul\":1056:1119   */\n    tag_103:\n        /* \"#utility.yul\":1003:1125   */\n      pop\n      jump\t// out\n        /* \"#utility.yul\":1131:1270   */\n    tag_73:\n        /* \"#utility.yul\":1177:1182   */\n      0x00\n        /* \"#utility.yul\":1215:1221   */\n      dup2\n        /* \"#utility.yul\":1202:1222   */\n      calldataload\n        /* \"#utility.yul\":1193:1222   */\n      swap1\n      pop\n        /* \"#utility.yul\":1231:1264   */\n      tag_105\n        /* \"#utility.yul\":1258:1263   */\n      dup2\n        /* \"#utility.yul\":1231:1264   */\n      tag_72\n      jump\t// in\n    tag_105:\n        /* \"#utility.yul\":1131:1270   */\n      swap3\n      swap2\n      pop\n      pop\n      jump\t// out\n        /* \"#utility.yul\":1276:1605   */\n    tag_18:\n        /* \"#utility.yul\":1335:1341   */\n      0x00\n        /* \"#utility.yul\":1384:1386   */\n      0x20\n        /* \"#utility.yul\":1372:1381   */\n      dup3\n        /* \"#utility.yul\":1363:1370   */\n      dup5\n        /* \"#utility.yul\":1359:1382   */\n      sub\n        /* \"#utility.yul\":1355:1387   */\n      slt\n        /* \"#utility.yul\":1352:1471   */\n      iszero\n      tag_107\n      jumpi\n        /* \"#utility.yul\":1390:1469   */\n      tag_108\n      tag_68\n      jump\t// in\n    tag_108:\n        /* \"#utility.yul\":1352:1471   */\n    tag_107:\n        /* \"#utility.yul\":1510:1511   */\n      0x00\n        /* \"#utility.yul\":1535:1588   */\n      tag_109\n        /* \"#utility.yul\":1580:1587   */\n      dup5\n        /* \"#utility.yul\":1571:1577   */\n      dup3\n        /* \"#utility.yul\":1560:1569   */\n      dup6\n        /* \"#utility.yul\":1556:1578   */\n      add\n        /* \"#utility.yul\":1535:1588   */\n      tag_73\n      jump\t// in\n    tag_109:\n        /* \"#utility.yul\":1525:1588   */\n      swap2\n      pop\n        /* \"#utility.yul\":1481:1598   */\n      pop\n        /* \"#utility.yul\":1276:1605   */\n      swap3\n      swap2\n      pop\n      pop\n      jump\t// out\n        /* \"#utility.yul\":1611:1733   */\n    tag_74:\n        /* \"#utility.yul\":1684:1708   */\n      tag_111\n        /* \"#utility.yul\":1702:1707   */\n      dup2\n        /* \"#utility.yul\":1684:1708   */\n      tag_65\n      jump\t// in\n    tag_111:\n        /* \"#utility.yul\":1677:1682   */\n      dup2\n        /* \"#utility.yul\":1674:1709   */\n      eq\n        /* \"#utility.yul\":1664:1727   */\n      tag_112\n      jumpi\n        /* \"#utility.yul\":1723:1724   */\n      0x00\n        /* \"#utility.yul\":1720:1721   */\n      dup1\n        /* \"#utility.yul\":1713:1725   */\n      revert\n        /* \"#utility.yul\":1664:1727   */\n    tag_112:\n        /* \"#utility.yul\":1611:1733   */\n      pop\n      jump\t// out\n        /* \"#utility.yul\":1739:1878   */\n    tag_75:\n        /* \"#utility.yul\":1785:1790   */\n      0x00\n        /* \"#utility.yul\":1823:1829   */\n      dup2\n        /* \"#utility.yul\":1810:1830   */\n      calldataload\n        /* \"#utility.yul\":1801:1830   */\n      swap1\n      pop\n        /* \"#utility.yul\":1839:1872   */\n      tag_114\n        /* \"#utility.yul\":1866:1871   */\n      dup2\n        /* \"#utility.yul\":1839:1872   */\n      tag_74\n      jump\t// in\n    tag_114:\n        /* \"#utility.yul\":1739:1878   */\n      swap3\n      swap2\n      pop\n      pop\n      jump\t// out\n        /* \"#utility.yul\":1884:2213   */\n    tag_26:\n        /* \"#utility.yul\":1943:1949   */\n      0x00\n        /* \"#utility.yul\":1992:1994   */\n      0x20\n        /* \"#utility.yul\":1980:1989   */\n      dup3\n        /* \"#utility.yul\":1971:1978   */\n      dup5\n        /* \"#utility.yul\":1967:1990   */\n      sub\n        /* \"#utility.yul\":1963:1995   */\n      slt\n        /* \"#utility.yul\":1960:2079   */\n      iszero\n      tag_116\n      jumpi\n        /* \"#utility.yul\":1998:2077   */\n      tag_117\n      tag_68\n      jump\t// in\n    tag_117:\n        /* \"#utility.yul\":1960:2079   */\n    tag_116:\n        /* \"#utility.yul\":2118:2119   */\n      0x00\n        /* \"#utility.yul\":2143:2196   */\n      tag_118\n        /* \"#utility.yul\":2188:2195   */\n      dup5\n        /* \"#utility.yul\":2179:2185   */\n      dup3\n        /* \"#utility.yul\":2168:2177   */\n      dup6\n        /* \"#utility.yul\":2164:2186   */\n      add\n        /* \"#utility.yul\":2143:2196   */\n      tag_75\n      jump\t// in\n    tag_118:\n        /* \"#utility.yul\":2133:2196   */\n      swap2\n      pop\n        /* \"#utility.yul\":2089:2206   */\n      pop\n        /* \"#utility.yul\":1884:2213   */\n      swap3\n      swap2\n      pop\n      pop\n      jump\t// out\n        /* \"#utility.yul\":2219:2337   */\n    tag_76:\n        /* \"#utility.yul\":2306:2330   */\n      tag_120\n        /* \"#utility.yul\":2324:2329   */\n      dup2\n        /* \"#utility.yul\":2306:2330   */\n      tag_71\n      jump\t// in\n    tag_120:\n        /* \"#utility.yul\":2301:2304   */\n      dup3\n        /* \"#utility.yul\":2294:2331   */\n      mstore\n        /* \"#utility.yul\":2219:2337   */\n      pop\n      pop\n      jump\t// out\n        /* \"#utility.yul\":2343:2565   */\n    tag_29:\n        /* \"#utility.yul\":2436:2440   */\n      0x00\n        /* \"#utility.yul\":2474:2476   */\n      0x20\n        /* \"#utility.yul\":2463:2472   */\n      dup3\n        /* \"#utility.yul\":2459:2477   */\n      add\n        /* \"#utility.yul\":2451:2477   */\n      swap1\n      pop\n        /* \"#utility.yul\":2487:2558   */\n      tag_122\n        /* \"#utility.yul\":2555:2556   */\n      0x00\n        /* \"#utility.yul\":2544:2553   */\n      dup4\n        /* \"#utility.yul\":2540:2557   */\n      add\n        /* \"#utility.yul\":2531:2537   */\n      dup5\n        /* \"#utility.yul\":2487:2558   */\n      tag_76\n      jump\t// in\n    tag_122:\n        /* \"#utility.yul\":2343:2565   */\n      swap3\n      swap2\n      pop\n      pop\n      jump\t// out\n        /* \"#utility.yul\":2571:2751   */\n    tag_36:\n        /* \"#utility.yul\":2619:2696   */\n      0x4e487b7100000000000000000000000000000000000000000000000000000000\n        /* \"#utility.yul\":2616:2617   */\n      0x00\n        /* \"#utility.yul\":2609:2697   */\n      mstore\n        /* \"#utility.yul\":2716:2720   */\n      0x32\n        /* \"#utility.yul\":2713:2714   */\n      0x04\n        /* \"#utility.yul\":2706:2721   */\n      mstore\n        /* \"#utility.yul\":2740:2744   */\n      0x24\n        /* \"#utility.yul\":2737:2738   */\n      0x00\n        /* \"#utility.yul\":2730:2745   */\n      revert\n        /* \"#utility.yul\":2757:2937   */\n    tag_77:\n        /* \"#utility.yul\":2805:2882   */\n      0x4e487b7100000000000000000000000000000000000000000000000000000000\n        /* \"#utility.yul\":2802:2803   */\n      0x00\n        /* \"#utility.yul\":2795:2883   */\n      mstore\n        /* \"#utility.yul\":2902:2906   */\n      0x11\n        /* \"#utility.yul\":2899:2900   */\n      0x04\n        /* \"#utility.yul\":2892:2907   */\n      mstore\n        /* \"#utility.yul\":2926:2930   */\n      0x24\n        /* \"#utility.yul\":2923:2924   */\n      0x00\n        /* \"#utility.yul\":2916:2931   */\n      revert\n        /* \"#utility.yul\":2943:3176   */\n    tag_39:\n        /* \"#utility.yul\":2982:2985   */\n      0x00\n        /* \"#utility.yul\":3005:3029   */\n      tag_126\n        /* \"#utility.yul\":3023:3028   */\n      dup3\n        /* \"#utility.yul\":3005:3029   */\n      tag_65\n      jump\t// in\n    tag_126:\n        /* \"#utility.yul\":2996:3029   */\n      swap2\n      pop\n        /* \"#utility.yul\":3051:3117   */\n      0xffffffffffffffffffffffffffffffffffffffffffffffffffffffffffffffff\n        /* \"#utility.yul\":3044:3049   */\n      dup3\n        /* \"#utility.yul\":3041:3118   */\n      sub\n        /* \"#utility.yul\":3038:3141   */\n      tag_127\n      jumpi\n        /* \"#utility.yul\":3121:3139   */\n      tag_128\n      tag_77\n      jump\t// in\n    tag_128:\n        /* \"#utility.yul\":3038:3141   */\n    tag_127:\n        /* \"#utility.yul\":3168:3169   */\n      0x01\n        /* \"#utility.yul\":3161:3166   */\n      dup3\n        /* \"#utility.yul\":3157:3170   */\n      add\n        /* \"#utility.yul\":3150:3170   */\n      swap1\n      pop\n        /* \"#utility.yul\":2943:3176   */\n      swap2\n      swap1\n      pop\n      jump\t// out\n        /* \"#utility.yul\":3182:3351   */\n    tag_78:\n        /* \"#utility.yul\":3266:3277   */\n      0x00\n        /* \"#utility.yul\":3300:3306   */\n      dup3\n        /* \"#utility.yul\":3295:3298   */\n      dup3\n        /* \"#utility.yul\":3288:3307   */\n      mstore\n        /* \"#utility.yul\":3340:3344   */\n      0x20\n        /* \"#utility.yul\":3335:3338   */\n      dup3\n        /* \"#utility.yul\":3331:3345   */\n      add\n        /* \"#utility.yul\":3316:3345   */\n      swap1\n      pop\n        /* \"#utility.yul\":3182:3351   */\n      swap3\n      swap2\n      pop\n      pop\n      jump\t// out\n        /* \"#utility.yul\":3357:3525   */\n    tag_79:\n        /* \"#utility.yul\":3497:3517   */\n      0x46756e64206973206e6f7420656e6f7567680000000000000000000000000000\n        /* \"#utility.yul\":3493:3494   */\n      0x00\n        /* \"#utility.yul\":3485:3491   */\n      dup3\n        /* \"#utility.yul\":3481:3495   */\n      add\n        /* \"#utility.yul\":3474:3518   */\n      mstore\n        /* \"#utility.yul\":3357:3525   */\n      pop\n      jump\t// out\n        /* \"#utility.yul\":3531:3897   */\n    tag_80:\n        /* \"#utility.yul\":3673:3676   */\n      0x00\n        /* \"#utility.yul\":3694:3761   */\n      tag_132\n        /* \"#utility.yul\":3758:3760   */\n      0x12\n        /* \"#utility.yul\":3753:3756   */\n      dup4\n        /* \"#utility.yul\":3694:3761   */\n      tag_78\n      jump\t// in\n    tag_132:\n        /* \"#utility.yul\":3687:3761   */\n      swap2\n      pop\n        /* \"#utility.yul\":3770:3863   */\n      tag_133\n        /* \"#utility.yul\":3859:3862   */\n      dup3\n        /* \"#utility.yul\":3770:3863   */\n      tag_79\n      jump\t// in\n    tag_133:\n        /* \"#utility.yul\":3888:3890   */\n      0x20\n        /* \"#utility.yul\":3883:3886   */\n      dup3\n        /* \"#utility.yul\":3879:3891   */\n      add\n        /* \"#utility.yul\":3872:3891   */\n      swap1\n      pop\n        /* \"#utility.yul\":3531:3897   */\n      swap2\n      swap1\n      pop\n      jump\t// out\n        /* \"#utility.yul\":3903:4322   */\n    tag_45:\n        /* \"#utility.yul\":4069:4073   */\n      0x00\n        /* \"#utility.yul\":4107:4109   */\n      0x20\n        /* \"#utility.yul\":4096:4105   */\n      dup3\n        /* \"#utility.yul\":4092:4110   */\n      add\n        /* \"#utility.yul\":4084:4110   */\n      swap1\n      pop\n        /* \"#utility.yul\":4156:4165   */\n      dup2\n        /* \"#utility.yul\":4150:4154   */\n      dup2\n        /* \"#utility.yul\":4146:4166   */\n      sub\n        /* \"#utility.yul\":4142:4143   */\n      0x00\n        /* \"#utility.yul\":4131:4140   */\n      dup4\n        /* \"#utility.yul\":4127:4144   */\n      add\n        /* \"#utility.yul\":4120:4167   */\n      mstore\n        /* \"#utility.yul\":4184:4315   */\n      tag_135\n        /* \"#utility.yul\":4310:4314   */\n      dup2\n        /* \"#utility.yul\":4184:4315   */\n      tag_80\n      jump\t// in\n    tag_135:\n        /* \"#utility.yul\":4176:4315   */\n      swap1\n      pop\n        /* \"#utility.yul\":3903:4322   */\n      swap2\n      swap1\n      pop\n      jump\t// out\n        /* \"#utility.yul\":4328:4519   */\n    tag_48:\n        /* \"#utility.yul\":4368:4371   */\n      0x00\n        /* \"#utility.yul\":4387:4407   */\n      tag_137\n        /* \"#utility.yul\":4405:4406   */\n      dup3\n        /* \"#utility.yul\":4387:4407   */\n      tag_65\n      jump\t// in\n    tag_137:\n        /* \"#utility.yul\":4382:4407   */\n      swap2\n      pop\n        /* \"#utility.yul\":4421:4441   */\n      tag_138\n        /* \"#utility.yul\":4439:4440   */\n      dup4\n        /* \"#utility.yul\":4421:4441   */\n      tag_65\n      jump\t// in\n    tag_138:\n        /* \"#utility.yul\":4416:4441   */\n      swap3\n      pop\n        /* \"#utility.yul\":4464:4465   */\n      dup3\n        /* \"#utility.yul\":4461:4462   */\n      dup3\n        /* \"#utility.yul\":4457:4466   */\n      add\n        /* \"#utility.yul\":4450:4466   */\n      swap1\n      pop\n        /* \"#utility.yul\":4485:4488   */\n      dup1\n        /* \"#utility.yul\":4482:4483   */\n      dup3\n        /* \"#utility.yul\":4479:4489   */\n      gt\n        /* \"#utility.yul\":4476:4512   */\n      iszero\n      tag_139\n      jumpi\n        /* \"#utility.yul\":4492:4510   */\n      tag_140\n      tag_77\n      jump\t// in\n    tag_140:\n        /* \"#utility.yul\":4476:4512   */\n    tag_139:\n        /* \"#utility.yul\":4328:4519   */\n      swap3\n      swap2\n      pop\n      pop\n      jump\t// out\n        /* \"#utility.yul\":4525:4935   */\n    tag_55:\n        /* \"#utility.yul\":4565:4572   */\n      0x00\n        /* \"#utility.yul\":4588:4608   */\n      tag_142\n        /* \"#utility.yul\":4606:4607   */\n      dup3\n        /* \"#utility.yul\":4588:4608   */\n      tag_65\n      jump\t// in\n    tag_142:\n        /* \"#utility.yul\":4583:4608   */\n      swap2\n      pop\n        /* \"#utility.yul\":4622:4642   */\n      tag_143\n        /* \"#utility.yul\":4640:4641   */\n      dup4\n        /* \"#utility.yul\":4622:4642   */\n      tag_65\n      jump\t// in\n    tag_143:\n        /* \"#utility.yul\":4617:4642   */\n      swap3\n      pop\n        /* \"#utility.yul\":4677:4678   */\n      dup3\n        /* \"#utility.yul\":4674:4675   */\n      dup3\n        /* \"#utility.yul\":4670:4679   */\n      mul\n        /* \"#utility.yul\":4699:4729   */\n      tag_144\n        /* \"#utility.yul\":4717:4728   */\n      dup2\n        /* \"#utility.yul\":4699:4729   */\n      tag_65\n      jump\t// in\n    tag_144:\n        /* \"#utility.yul\":4688:4729   */\n      swap2\n      pop\n        /* \"#utility.yul\":4878:4879   */\n      dup3\n        /* \"#utility.yul\":4869:4876   */\n      dup3\n        /* \"#utility.yul\":4865:4880   */\n      div\n        /* \"#utility.yul\":4862:4863   */\n      dup5\n        /* \"#utility.yul\":4859:4881   */\n      eq\n        /* \"#utility.yul\":4839:4840   */\n      dup4\n        /* \"#utility.yul\":4832:4841   */\n      iszero\n        /* \"#utility.yul\":4812:4895   */\n      or\n        /* \"#utility.yul\":4789:4928   */\n      tag_145\n      jumpi\n        /* \"#utility.yul\":4908:4926   */\n      tag_146\n      tag_77\n      jump\t// in\n    tag_146:\n        /* \"#utility.yul\":4789:4928   */\n    tag_145:\n        /* \"#utility.yul\":4573:4935   */\n      pop\n        /* \"#utility.yul\":4525:4935   */\n      swap3\n      swap2\n      pop\n      pop\n      jump\t// out\n        /* \"#utility.yul\":4941:5121   */\n    tag_81:\n        /* \"#utility.yul\":4989:5066   */\n      0x4e487b7100000000000000000000000000000000000000000000000000000000\n        /* \"#utility.yul\":4986:4987   */\n      0x00\n        /* \"#utility.yul\":4979:5067   */\n      mstore\n        /* \"#utility.yul\":5086:5090   */\n      0x12\n        /* \"#utility.yul\":5083:5084   */\n      0x04\n        /* \"#utility.yul\":5076:5091   */\n      mstore\n        /* \"#utility.yul\":5110:5114   */\n      0x24\n        /* \"#utility.yul\":5107:5108   */\n      0x00\n        /* \"#utility.yul\":5100:5115   */\n      revert\n        /* \"#utility.yul\":5127:5312   */\n    tag_57:\n        /* \"#utility.yul\":5167:5168   */\n      0x00\n        /* \"#utility.yul\":5184:5204   */\n      tag_149\n        /* \"#utility.yul\":5202:5203   */\n      dup3\n        /* \"#utility.yul\":5184:5204   */\n      tag_65\n      jump\t// in\n    tag_149:\n        /* \"#utility.yul\":5179:5204   */\n      swap2\n      pop\n        /* \"#utility.yul\":5218:5238   */\n      tag_150\n        /* \"#utility.yul\":5236:5237   */\n      dup4\n        /* \"#utility.yul\":5218:5238   */\n      tag_65\n      jump\t// in\n    tag_150:\n        /* \"#utility.yul\":5213:5238   */\n      swap3\n      pop\n        /* \"#utility.yul\":5257:5258   */\n      dup3\n        /* \"#utility.yul\":5247:5282   */\n      tag_151\n      jumpi\n        /* \"#utility.yul\":5262:5280   */\n      tag_152\n      tag_81\n      jump\t// in\n    tag_152:\n        /* \"#utility.yul\":5247:5282   */\n    tag_151:\n        /* \"#utility.yul\":5304:5305   */\n      dup3\n        /* \"#utility.yul\":5301:5302   */\n      dup3\n        /* \"#utility.yul\":5297:5306   */\n      div\n        /* \"#utility.yul\":5292:5306   */\n      swap1\n      pop\n        /* \"#utility.yul\":5127:5312   */\n      swap3\n      swap2\n      pop\n      pop\n      jump\t// out\n        /* \"#utility.yul\":5318:5423   */\n    tag_82:\n        /* \"#utility.yul\":5354:5361   */\n      0x00\n        /* \"#utility.yul\":5394:5416   */\n      0xffffffffffffffffffff\n        /* \"#utility.yul\":5387:5392   */\n      dup3\n        /* \"#utility.yul\":5383:5417   */\n      and\n        /* \"#utility.yul\":5372:5417   */\n      swap1\n      pop\n        /* \"#utility.yul\":5318:5423   */\n      swap2\n      swap1\n      pop\n      jump\t// out\n        /* \"#utility.yul\":5429:5549   */\n    tag_83:\n        /* \"#utility.yul\":5501:5524   */\n      tag_155\n        /* \"#utility.yul\":5518:5523   */\n      dup2\n        /* \"#utility.yul\":5501:5524   */\n      tag_82\n      jump\t// in\n    tag_155:\n        /* \"#utility.yul\":5494:5499   */\n      dup2\n        /* \"#utility.yul\":5491:5525   */\n      eq\n        /* \"#utility.yul\":5481:5543   */\n      tag_156\n      jumpi\n        /* \"#utility.yul\":5539:5540   */\n      0x00\n        /* \"#utility.yul\":5536:5537   */\n      dup1\n        /* \"#utility.yul\":5529:5541   */\n      revert\n        /* \"#utility.yul\":5481:5543   */\n    tag_156:\n        /* \"#utility.yul\":5429:5549   */\n      pop\n      jump\t// out\n        /* \"#utility.yul\":5555:5696   */\n    tag_84:\n        /* \"#utility.yul\":5611:5616   */\n      0x00\n        /* \"#utility.yul\":5642:5648   */\n      dup2\n        /* \"#utility.yul\":5636:5649   */\n      mload\n        /* \"#utility.yul\":5627:5649   */\n      swap1\n      pop\n        /* \"#utility.yul\":5658:5690   */\n      tag_158\n        /* \"#utility.yul\":5684:5689   */\n      dup2\n        /* \"#utility.yul\":5658:5690   */\n      tag_83\n      jump\t// in\n    tag_158:\n        /* \"#utility.yul\":5555:5696   */\n      swap3\n      swap2\n      pop\n      pop\n      jump\t// out\n        /* \"#utility.yul\":5702:5778   */\n    tag_85:\n        /* \"#utility.yul\":5738:5745   */\n      0x00\n        /* \"#utility.yul\":5767:5772   */\n      dup2\n        /* \"#utility.yul\":5756:5772   */\n      swap1\n      pop\n        /* \"#utility.yul\":5702:5778   */\n      swap2\n      swap1\n      pop\n      jump\t// out\n        /* \"#utility.yul\":5784:5904   */\n    tag_86:\n        /* \"#utility.yul\":5856:5879   */\n      tag_161\n        /* \"#utility.yul\":5873:5878   */\n      dup2\n        /* \"#utility.yul\":5856:5879   */\n      tag_85\n      jump\t// in\n    tag_161:\n        /* \"#utility.yul\":5849:5854   */\n      dup2\n        /* \"#utility.yul\":5846:5880   */\n      eq\n        /* \"#utility.yul\":5836:5898   */\n      tag_162\n      jumpi\n        /* \"#utility.yul\":5894:5895   */\n      0x00\n        /* \"#utility.yul\":5891:5892   */\n      dup1\n        /* \"#utility.yul\":5884:5896   */\n      revert\n        /* \"#utility.yul\":5836:5898   */\n    tag_162:\n        /* \"#utility.yul\":5784:5904   */\n      pop\n      jump\t// out\n        /* \"#utility.yul\":5910:6051   */\n    tag_87:\n        /* \"#utility.yul\":5966:5971   */\n      0x00\n        /* \"#utility.yul\":5997:6003   */\n      dup2\n        /* \"#utility.yul\":5991:6004   */\n      mload\n        /* \"#utility.yul\":5982:6004   */\n      swap1\n      pop\n        /* \"#utility.yul\":6013:6045   */\n      tag_164\n        /* \"#utility.yul\":6039:6044   */\n      dup2\n        /* \"#utility.yul\":6013:6045   */\n      tag_86\n      jump\t// in\n    tag_164:\n        /* \"#utility.yul\":5910:6051   */\n      swap3\n      swap2\n      pop\n      pop\n      jump\t// out\n        /* \"#utility.yul\":6057:6200   */\n    tag_88:\n        /* \"#utility.yul\":6114:6119   */\n      0x00\n        /* \"#utility.yul\":6145:6151   */\n      dup2\n        /* \"#utility.yul\":6139:6152   */\n      mload\n        /* \"#utility.yul\":6130:6152   */\n      swap1\n      pop\n        /* \"#utility.yul\":6161:6194   */\n      tag_166\n        /* \"#utility.yul\":6188:6193   */\n      dup2\n        /* \"#utility.yul\":6161:6194   */\n      tag_74\n      jump\t// in\n    tag_166:\n        /* \"#utility.yul\":6057:6200   */\n      swap3\n      swap2\n      pop\n      pop\n      jump\t// out\n        /* \"#utility.yul\":6206:7177   */\n    tag_62:\n        /* \"#utility.yul\":6309:6315   */\n      0x00\n        /* \"#utility.yul\":6317:6323   */\n      dup1\n        /* \"#utility.yul\":6325:6331   */\n      0x00\n        /* \"#utility.yul\":6333:6339   */\n      dup1\n        /* \"#utility.yul\":6341:6347   */\n      0x00\n        /* \"#utility.yul\":6390:6393   */\n      0xa0\n        /* \"#utility.yul\":6378:6387   */\n      dup7\n        /* \"#utility.yul\":6369:6376   */\n      dup9\n        /* \"#utility.yul\":6365:6388   */\n      sub\n        /* \"#utility.yul\":6361:6394   */\n      slt\n        /* \"#utility.yul\":6358:6478   */\n      iszero\n      tag_168\n      jumpi\n        /* \"#utility.yul\":6397:6476   */\n      tag_169\n      tag_68\n      jump\t// in\n    tag_169:\n        /* \"#utility.yul\":6358:6478   */\n    tag_168:\n        /* \"#utility.yul\":6517:6518   */\n      0x00\n        /* \"#utility.yul\":6542:6605   */\n      tag_170\n        /* \"#utility.yul\":6597:6604   */\n      dup9\n        /* \"#utility.yul\":6588:6594   */\n      dup3\n        /* \"#utility.yul\":6577:6586   */\n      dup10\n        /* \"#utility.yul\":6573:6595   */\n      add\n        /* \"#utility.yul\":6542:6605   */\n      tag_84\n      jump\t// in\n    tag_170:\n        /* \"#utility.yul\":6532:6605   */\n      swap6\n      pop\n        /* \"#utility.yul\":6488:6615   */\n      pop\n        /* \"#utility.yul\":6654:6656   */\n      0x20\n        /* \"#utility.yul\":6680:6743   */\n      tag_171\n        /* \"#utility.yul\":6735:6742   */\n      dup9\n        /* \"#utility.yul\":6726:6732   */\n      dup3\n        /* \"#utility.yul\":6715:6724   */\n      dup10\n        /* \"#utility.yul\":6711:6733   */\n      add\n        /* \"#utility.yul\":6680:6743   */\n      tag_87\n      jump\t// in\n    tag_171:\n        /* \"#utility.yul\":6670:6743   */\n      swap5\n      pop\n        /* \"#utility.yul\":6625:6753   */\n      pop\n        /* \"#utility.yul\":6792:6794   */\n      0x40\n        /* \"#utility.yul\":6818:6882   */\n      tag_172\n        /* \"#utility.yul\":6874:6881   */\n      dup9\n        /* \"#utility.yul\":6865:6871   */\n      dup3\n        /* \"#utility.yul\":6854:6863   */\n      dup10\n        /* \"#utility.yul\":6850:6872   */\n      add\n        /* \"#utility.yul\":6818:6882   */\n      tag_88\n      jump\t// in\n    tag_172:\n        /* \"#utility.yul\":6808:6882   */\n      swap4\n      pop\n        /* \"#utility.yul\":6763:6892   */\n      pop\n        /* \"#utility.yul\":6931:6933   */\n      0x60\n        /* \"#utility.yul\":6957:7021   */\n      tag_173\n        /* \"#utility.yul\":7013:7020   */\n      dup9\n        /* \"#utility.yul\":7004:7010   */\n      dup3\n        /* \"#utility.yul\":6993:7002   */\n      dup10\n        /* \"#utility.yul\":6989:7011   */\n      add\n        /* \"#utility.yul\":6957:7021   */\n      tag_88\n      jump\t// in\n    tag_173:\n        /* \"#utility.yul\":6947:7021   */\n      swap3\n      pop\n        /* \"#utility.yul\":6902:7031   */\n      pop\n        /* \"#utility.yul\":7070:7073   */\n      0x80\n        /* \"#utility.yul\":7097:7160   */\n      tag_174\n        /* \"#utility.yul\":7152:7159   */\n      dup9\n        /* \"#utility.yul\":7143:7149   */\n      dup3\n        /* \"#utility.yul\":7132:7141   */\n      dup10\n        /* \"#utility.yul\":7128:7150   */\n      add\n        /* \"#utility.yul\":7097:7160   */\n      tag_84\n      jump\t// in\n    tag_174:\n        /* \"#utility.yul\":7087:7160   */\n      swap2\n      pop\n        /* \"#utility.yul\":7041:7170   */\n      pop\n        /* \"#utility.yul\":6206:7177   */\n      swap3\n      swap6\n      pop\n      swap3\n      swap6\n      swap1\n      swap4\n      pop\n      jump\t// out\n        /* \"#utility.yul\":7183:7739   */\n    tag_64:\n        /* \"#utility.yul\":7222:7229   */\n      0x00\n        /* \"#utility.yul\":7245:7264   */\n      tag_176\n        /* \"#utility.yul\":7262:7263   */\n      dup3\n        /* \"#utility.yul\":7245:7264   */\n      tag_85\n      jump\t// in\n    tag_176:\n        /* \"#utility.yul\":7240:7264   */\n      swap2\n      pop\n        /* \"#utility.yul\":7278:7297   */\n      tag_177\n        /* \"#utility.yul\":7295:7296   */\n      dup4\n        /* \"#utility.yul\":7278:7297   */\n      tag_85\n      jump\t// in\n    tag_177:\n        /* \"#utility.yul\":7273:7297   */\n      swap3\n      pop\n        /* \"#utility.yul\":7332:7333   */\n      dup3\n        /* \"#utility.yul\":7329:7330   */\n      dup3\n        /* \"#utility.yul\":7325:7334   */\n      mul\n        /* \"#utility.yul\":7354:7383   */\n      tag_178\n        /* \"#utility.yul\":7371:7382   */\n      dup2\n        /* \"#utility.yul\":7354:7383   */\n      tag_85\n      jump\t// in\n    tag_178:\n        /* \"#utility.yul\":7343:7383   */\n      swap2\n      pop\n        /* \"#utility.yul\":7441:7507   */\n      0x8000000000000000000000000000000000000000000000000000000000000000\n        /* \"#utility.yul\":7438:7439   */\n      dup5\n        /* \"#utility.yul\":7435:7508   */\n      eq\n        /* \"#utility.yul\":7431:7432   */\n      0x00\n        /* \"#utility.yul\":7428:7429   */\n      dup5\n        /* \"#utility.yul\":7424:7433   */\n      slt\n        /* \"#utility.yul\":7420:7509   */\n      and\n        /* \"#utility.yul\":7417:7532   */\n      iszero\n      tag_179\n      jumpi\n        /* \"#utility.yul\":7512:7530   */\n      tag_180\n      tag_77\n      jump\t// in\n    tag_180:\n        /* \"#utility.yul\":7417:7532   */\n    tag_179:\n        /* \"#utility.yul\":7682:7683   */\n      dup3\n        /* \"#utility.yul\":7673:7680   */\n      dup3\n        /* \"#utility.yul\":7668:7684   */\n      sdiv\n        /* \"#utility.yul\":7665:7666   */\n      dup5\n        /* \"#utility.yul\":7662:7685   */\n      eq\n        /* \"#utility.yul\":7642:7643   */\n      dup4\n        /* \"#utility.yul\":7635:7644   */\n      iszero\n        /* \"#utility.yul\":7615:7699   */\n      or\n        /* \"#utility.yul\":7592:7732   */\n      tag_181\n      jumpi\n        /* \"#utility.yul\":7712:7730   */\n      tag_182\n      tag_77\n      jump\t// in\n    tag_182:\n        /* \"#utility.yul\":7592:7732   */\n    tag_181:\n        /* \"#utility.yul\":7230:7739   */\n      pop\n        /* \"#utility.yul\":7183:7739   */\n      swap3\n      swap2\n      pop\n      pop\n      jump\t// out\n\n    auxdata: 0xa2646970667358221220e1cfcd20ed4138df057dfd3c2bbc85a0291d44fda8422a394dc2f0dce31bafb064736f6c63430008110033\n}\n",
				"bytecode": {
					"linkReferences": {},
					"object": "60806040526802b5e3af16b188000060005534801561001d57600080fd5b506109028061002d6000396000f3fe60806040526004361061004a5760003560e01c8063098de8201461004f5780633ccfd60b1461007a5780633e47d6f314610091578063b60d4288146100ce578063dc0d3dff146100d8575b600080fd5b34801561005b57600080fd5b50610064610115565b6040516100719190610425565b60405180910390f35b34801561008657600080fd5b5061008f61011b565b005b34801561009d57600080fd5b506100b860048036038101906100b391906104a3565b6101ca565b6040516100c59190610425565b60405180910390f35b6100d66101e2565b005b3480156100e457600080fd5b506100ff60048036038101906100fa91906104fc565b6102ea565b60405161010c9190610538565b60405180910390f35b60005481565b60005b6001805490508110156101c75760006001828154811061014157610140610553565b5b9060005260206000200160009054906101000a900473ffffffffffffffffffffffffffffffffffffffff1690506000600260008373ffffffffffffffffffffffffffffffffffffffff1673ffffffffffffffffffffffffffffffffffffffff168152602001908152602001600020819055505080806101bf906105b1565b91505061011e565b50565b60026020528060005260406000206000915090505481565b6000546101ee34610329565b101561022f576040517f08c379a000000000000000000000000000000000000000000000000000000000815260040161022690610656565b60405180910390fd5b6001339080600181540180825580915050600190039060005260206000200160009091909190916101000a81548173ffffffffffffffffffffffffffffffffffffffff021916908373ffffffffffffffffffffffffffffffffffffffff16021790555034600260003373ffffffffffffffffffffffffffffffffffffffff1673ffffffffffffffffffffffffffffffffffffffff16815260200190815260200160002060008282546102e19190610676565b92505081905550565b600181815481106102fa57600080fd5b906000526020600020016000915054906101000a900473ffffffffffffffffffffffffffffffffffffffff1681565b600080610334610363565b90506000670de0b6b3a7640000848361034d91906106aa565b610357919061071b565b90508092505050919050565b60008073d4a33860578de61dbabdc8bfdb98fd742fa7028e905060008173ffffffffffffffffffffffffffffffffffffffff1663feaf968c6040518163ffffffff1660e01b815260040160a060405180830381865afa1580156103ca573d6000803e3d6000fd5b505050506040513d601f19601f820116820180604052508101906103ee91906107d9565b5050509150506402540be400816104059190610854565b9250505090565b6000819050919050565b61041f8161040c565b82525050565b600060208201905061043a6000830184610416565b92915050565b600080fd5b600073ffffffffffffffffffffffffffffffffffffffff82169050919050565b600061047082610445565b9050919050565b61048081610465565b811461048b57600080fd5b50565b60008135905061049d81610477565b92915050565b6000602082840312156104b9576104b8610440565b5b60006104c78482850161048e565b91505092915050565b6104d98161040c565b81146104e457600080fd5b50565b6000813590506104f6816104d0565b92915050565b60006020828403121561051257610511610440565b5b6000610520848285016104e7565b91505092915050565b61053281610465565b82525050565b600060208201905061054d6000830184610529565b92915050565b7f4e487b7100000000000000000000000000000000000000000000000000000000600052603260045260246000fd5b7f4e487b7100000000000000000000000000000000000000000000000000000000600052601160045260246000fd5b60006105bc8261040c565b91507fffffffffffffffffffffffffffffffffffffffffffffffffffffffffffffffff82036105ee576105ed610582565b5b600182019050919050565b600082825260208201905092915050565b7f46756e64206973206e6f7420656e6f7567680000000000000000000000000000600082015250565b60006106406012836105f9565b915061064b8261060a565b602082019050919050565b6000602082019050818103600083015261066f81610633565b9050919050565b60006106818261040c565b915061068c8361040c565b92508282019050808211156106a4576106a3610582565b5b92915050565b60006106b58261040c565b91506106c08361040c565b92508282026106ce8161040c565b915082820484148315176106e5576106e4610582565b5b5092915050565b7f4e487b7100000000000000000000000000000000000000000000000000000000600052601260045260246000fd5b60006107268261040c565b91506107318361040c565b925082610741576107406106ec565b5b828204905092915050565b600069ffffffffffffffffffff82169050919050565b61076b8161074c565b811461077657600080fd5b50565b60008151905061078881610762565b92915050565b6000819050919050565b6107a18161078e565b81146107ac57600080fd5b50565b6000815190506107be81610798565b92915050565b6000815190506107d3816104d0565b92915050565b600080600080600060a086880312156107f5576107f4610440565b5b600061080388828901610779565b9550506020610814888289016107af565b9450506040610825888289016107c4565b9350506060610836888289016107c4565b925050608061084788828901610779565b9150509295509295909350565b600061085f8261078e565b915061086a8361078e565b92508282026108788161078e565b91507f800000000000000000000000000000000000000000000000000000000000000084146000841216156108b0576108af610582565b5b82820584148315176108c5576108c4610582565b5b509291505056fea2646970667358221220e1cfcd20ed4138df057dfd3c2bbc85a0291d44fda8422a394dc2f0dce31bafb064736f6c63430008110033",
					"opcodes": "PUSH1 0x80 PUSH1 0x40 MSTORE PUSH9 0x2B5E3AF16B1880000 PUSH1 0x0 SSTORE CALLVALUE DUP1 ISZERO PUSH2 0x1D JUMPI PUSH1 0x0 DUP1 REVERT JUMPDEST POP PUSH2 0x902 DUP1 PUSH2 0x2D PUSH1 0x0 CODECOPY PUSH1 0x0 RETURN INVALID PUSH1 0x80 PUSH1 0x40 MSTORE PUSH1 0x4 CALLDATASIZE LT PUSH2 0x4A JUMPI PUSH1 0x0 CALLDATALOAD PUSH1 0xE0 SHR DUP1 PUSH4 0x98DE820 EQ PUSH2 0x4F JUMPI DUP1 PUSH4 0x3CCFD60B EQ PUSH2 0x7A JUMPI DUP1 PUSH4 0x3E47D6F3 EQ PUSH2 0x91 JUMPI DUP1 PUSH4 0xB60D4288 EQ PUSH2 0xCE JUMPI DUP1 PUSH4 0xDC0D3DFF EQ PUSH2 0xD8 JUMPI JUMPDEST PUSH1 0x0 DUP1 REVERT JUMPDEST CALLVALUE DUP1 ISZERO PUSH2 0x5B JUMPI PUSH1 0x0 DUP1 REVERT JUMPDEST POP PUSH2 0x64 PUSH2 0x115 JUMP JUMPDEST PUSH1 0x40 MLOAD PUSH2 0x71 SWAP2 SWAP1 PUSH2 0x425 JUMP JUMPDEST PUSH1 0x40 MLOAD DUP1 SWAP2 SUB SWAP1 RETURN JUMPDEST CALLVALUE DUP1 ISZERO PUSH2 0x86 JUMPI PUSH1 0x0 DUP1 REVERT JUMPDEST POP PUSH2 0x8F PUSH2 0x11B JUMP JUMPDEST STOP JUMPDEST CALLVALUE DUP1 ISZERO PUSH2 0x9D JUMPI PUSH1 0x0 DUP1 REVERT JUMPDEST POP PUSH2 0xB8 PUSH1 0x4 DUP1 CALLDATASIZE SUB DUP2 ADD SWAP1 PUSH2 0xB3 SWAP2 SWAP1 PUSH2 0x4A3 JUMP JUMPDEST PUSH2 0x1CA JUMP JUMPDEST PUSH1 0x40 MLOAD PUSH2 0xC5 SWAP2 SWAP1 PUSH2 0x425 JUMP JUMPDEST PUSH1 0x40 MLOAD DUP1 SWAP2 SUB SWAP1 RETURN JUMPDEST PUSH2 0xD6 PUSH2 0x1E2 JUMP JUMPDEST STOP JUMPDEST CALLVALUE DUP1 ISZERO PUSH2 0xE4 JUMPI PUSH1 0x0 DUP1 REVERT JUMPDEST POP PUSH2 0xFF PUSH1 0x4 DUP1 CALLDATASIZE SUB DUP2 ADD SWAP1 PUSH2 0xFA SWAP2 SWAP1 PUSH2 0x4FC JUMP JUMPDEST PUSH2 0x2EA JUMP JUMPDEST PUSH1 0x40 MLOAD PUSH2 0x10C SWAP2 SWAP1 PUSH2 0x538 JUMP JUMPDEST PUSH1 0x40 MLOAD DUP1 SWAP2 SUB SWAP1 RETURN JUMPDEST PUSH1 0x0 SLOAD DUP2 JUMP JUMPDEST PUSH1 0x0 JUMPDEST PUSH1 0x1 DUP1 SLOAD SWAP1 POP DUP2 LT ISZERO PUSH2 0x1C7 JUMPI PUSH1 0x0 PUSH1 0x1 DUP3 DUP2 SLOAD DUP2 LT PUSH2 0x141 JUMPI PUSH2 0x140 PUSH2 0x553 JUMP JUMPDEST JUMPDEST SWAP1 PUSH1 0x0 MSTORE PUSH1 0x20 PUSH1 0x0 KECCAK256 ADD PUSH1 0x0 SWAP1 SLOAD SWAP1 PUSH2 0x100 EXP SWAP1 DIV PUSH20 0xFFFFFFFFFFFFFFFFFFFFFFFFFFFFFFFFFFFFFFFF AND SWAP1 POP PUSH1 0x0 PUSH1 0x2 PUSH1 0x0 DUP4 PUSH20 0xFFFFFFFFFFFFFFFFFFFFFFFFFFFFFFFFFFFFFFFF AND PUSH20 0xFFFFFFFFFFFFFFFFFFFFFFFFFFFFFFFFFFFFFFFF AND DUP2 MSTORE PUSH1 0x20 ADD SWAP1 DUP2 MSTORE PUSH1 0x20 ADD PUSH1 0x0 KECCAK256 DUP2 SWAP1 SSTORE POP POP DUP1 DUP1 PUSH2 0x1BF SWAP1 PUSH2 0x5B1 JUMP JUMPDEST SWAP2 POP POP PUSH2 0x11E JUMP JUMPDEST POP JUMP JUMPDEST PUSH1 0x2 PUSH1 0x20 MSTORE DUP1 PUSH1 0x0 MSTORE PUSH1 0x40 PUSH1 0x0 KECCAK256 PUSH1 0x0 SWAP2 POP SWAP1 POP SLOAD DUP2 JUMP JUMPDEST PUSH1 0x0 SLOAD PUSH2 0x1EE CALLVALUE PUSH2 0x329 JUMP JUMPDEST LT ISZERO PUSH2 0x22F JUMPI PUSH1 0x40 MLOAD PUSH32 0x8C379A000000000000000000000000000000000000000000000000000000000 DUP2 MSTORE PUSH1 0x4 ADD PUSH2 0x226 SWAP1 PUSH2 0x656 JUMP JUMPDEST PUSH1 0x40 MLOAD DUP1 SWAP2 SUB SWAP1 REVERT JUMPDEST PUSH1 0x1 CALLER SWAP1 DUP1 PUSH1 0x1 DUP2 SLOAD ADD DUP1 DUP3 SSTORE DUP1 SWAP2 POP POP PUSH1 0x1 SWAP1 SUB SWAP1 PUSH1 0x0 MSTORE PUSH1 0x20 PUSH1 0x0 KECCAK256 ADD PUSH1 0x0 SWAP1 SWAP2 SWAP1 SWAP2 SWAP1 SWAP2 PUSH2 0x100 EXP DUP2 SLOAD DUP2 PUSH20 0xFFFFFFFFFFFFFFFFFFFFFFFFFFFFFFFFFFFFFFFF MUL NOT AND SWAP1 DUP4 PUSH20 0xFFFFFFFFFFFFFFFFFFFFFFFFFFFFFFFFFFFFFFFF AND MUL OR SWAP1 SSTORE POP CALLVALUE PUSH1 0x2 PUSH1 0x0 CALLER PUSH20 0xFFFFFFFFFFFFFFFFFFFFFFFFFFFFFFFFFFFFFFFF AND PUSH20 0xFFFFFFFFFFFFFFFFFFFFFFFFFFFFFFFFFFFFFFFF AND DUP2 MSTORE PUSH1 0x20 ADD SWAP1 DUP2 MSTORE PUSH1 0x20 ADD PUSH1 0x0 KECCAK256 PUSH1 0x0 DUP3 DUP3 SLOAD PUSH2 0x2E1 SWAP2 SWAP1 PUSH2 0x676 JUMP JUMPDEST SWAP3 POP POP DUP2 SWAP1 SSTORE POP JUMP JUMPDEST PUSH1 0x1 DUP2 DUP2 SLOAD DUP2 LT PUSH2 0x2FA JUMPI PUSH1 0x0 DUP1 REVERT JUMPDEST SWAP1 PUSH1 0x0 MSTORE PUSH1 0x20 PUSH1 0x0 KECCAK256 ADD PUSH1 0x0 SWAP2 POP SLOAD SWAP1 PUSH2 0x100 EXP SWAP1 DIV PUSH20 0xFFFFFFFFFFFFFFFFFFFFFFFFFFFFFFFFFFFFFFFF AND DUP2 JUMP JUMPDEST PUSH1 0x0 DUP1 PUSH2 0x334 PUSH2 0x363 JUMP JUMPDEST SWAP1 POP PUSH1 0x0 PUSH8 0xDE0B6B3A7640000 DUP5 DUP4 PUSH2 0x34D SWAP2 SWAP1 PUSH2 0x6AA JUMP JUMPDEST PUSH2 0x357 SWAP2 SWAP1 PUSH2 0x71B JUMP JUMPDEST SWAP1 POP DUP1 SWAP3 POP POP POP SWAP2 SWAP1 POP JUMP JUMPDEST PUSH1 0x0 DUP1 PUSH20 0xD4A33860578DE61DBABDC8BFDB98FD742FA7028E SWAP1 POP PUSH1 0x0 DUP2 PUSH20 0xFFFFFFFFFFFFFFFFFFFFFFFFFFFFFFFFFFFFFFFF AND PUSH4 0xFEAF968C PUSH1 0x40 MLOAD DUP2 PUSH4 0xFFFFFFFF AND PUSH1 0xE0 SHL DUP2 MSTORE PUSH1 0x4 ADD PUSH1 0xA0 PUSH1 0x40 MLOAD DUP1 DUP4 SUB DUP2 DUP7 GAS STATICCALL ISZERO DUP1 ISZERO PUSH2 0x3CA JUMPI RETURNDATASIZE PUSH1 0x0 DUP1 RETURNDATACOPY RETURNDATASIZE PUSH1 0x0 REVERT JUMPDEST POP POP POP POP PUSH1 0x40 MLOAD RETURNDATASIZE PUSH1 0x1F NOT PUSH1 0x1F DUP3 ADD AND DUP3 ADD DUP1 PUSH1 0x40 MSTORE POP DUP2 ADD SWAP1 PUSH2 0x3EE SWAP2 SWAP1 PUSH2 0x7D9 JUMP JUMPDEST POP POP POP SWAP2 POP POP PUSH5 0x2540BE400 DUP2 PUSH2 0x405 SWAP2 SWAP1 PUSH2 0x854 JUMP JUMPDEST SWAP3 POP POP POP SWAP1 JUMP JUMPDEST PUSH1 0x0 DUP2 SWAP1 POP SWAP2 SWAP1 POP JUMP JUMPDEST PUSH2 0x41F DUP2 PUSH2 0x40C JUMP JUMPDEST DUP3 MSTORE POP POP JUMP JUMPDEST PUSH1 0x0 PUSH1 0x20 DUP3 ADD SWAP1 POP PUSH2 0x43A PUSH1 0x0 DUP4 ADD DUP5 PUSH2 0x416 JUMP JUMPDEST SWAP3 SWAP2 POP POP JUMP JUMPDEST PUSH1 0x0 DUP1 REVERT JUMPDEST PUSH1 0x0 PUSH20 0xFFFFFFFFFFFFFFFFFFFFFFFFFFFFFFFFFFFFFFFF DUP3 AND SWAP1 POP SWAP2 SWAP1 POP JUMP JUMPDEST PUSH1 0x0 PUSH2 0x470 DUP3 PUSH2 0x445 JUMP JUMPDEST SWAP1 POP SWAP2 SWAP1 POP JUMP JUMPDEST PUSH2 0x480 DUP2 PUSH2 0x465 JUMP JUMPDEST DUP2 EQ PUSH2 0x48B JUMPI PUSH1 0x0 DUP1 REVERT JUMPDEST POP JUMP JUMPDEST PUSH1 0x0 DUP2 CALLDATALOAD SWAP1 POP PUSH2 0x49D DUP2 PUSH2 0x477 JUMP JUMPDEST SWAP3 SWAP2 POP POP JUMP JUMPDEST PUSH1 0x0 PUSH1 0x20 DUP3 DUP5 SUB SLT ISZERO PUSH2 0x4B9 JUMPI PUSH2 0x4B8 PUSH2 0x440 JUMP JUMPDEST JUMPDEST PUSH1 0x0 PUSH2 0x4C7 DUP5 DUP3 DUP6 ADD PUSH2 0x48E JUMP JUMPDEST SWAP2 POP POP SWAP3 SWAP2 POP POP JUMP JUMPDEST PUSH2 0x4D9 DUP2 PUSH2 0x40C JUMP JUMPDEST DUP2 EQ PUSH2 0x4E4 JUMPI PUSH1 0x0 DUP1 REVERT JUMPDEST POP JUMP JUMPDEST PUSH1 0x0 DUP2 CALLDATALOAD SWAP1 POP PUSH2 0x4F6 DUP2 PUSH2 0x4D0 JUMP JUMPDEST SWAP3 SWAP2 POP POP JUMP JUMPDEST PUSH1 0x0 PUSH1 0x20 DUP3 DUP5 SUB SLT ISZERO PUSH2 0x512 JUMPI PUSH2 0x511 PUSH2 0x440 JUMP JUMPDEST JUMPDEST PUSH1 0x0 PUSH2 0x520 DUP5 DUP3 DUP6 ADD PUSH2 0x4E7 JUMP JUMPDEST SWAP2 POP POP SWAP3 SWAP2 POP POP JUMP JUMPDEST PUSH2 0x532 DUP2 PUSH2 0x465 JUMP JUMPDEST DUP3 MSTORE POP POP JUMP JUMPDEST PUSH1 0x0 PUSH1 0x20 DUP3 ADD SWAP1 POP PUSH2 0x54D PUSH1 0x0 DUP4 ADD DUP5 PUSH2 0x529 JUMP JUMPDEST SWAP3 SWAP2 POP POP JUMP JUMPDEST PUSH32 0x4E487B7100000000000000000000000000000000000000000000000000000000 PUSH1 0x0 MSTORE PUSH1 0x32 PUSH1 0x4 MSTORE PUSH1 0x24 PUSH1 0x0 REVERT JUMPDEST PUSH32 0x4E487B7100000000000000000000000000000000000000000000000000000000 PUSH1 0x0 MSTORE PUSH1 0x11 PUSH1 0x4 MSTORE PUSH1 0x24 PUSH1 0x0 REVERT JUMPDEST PUSH1 0x0 PUSH2 0x5BC DUP3 PUSH2 0x40C JUMP JUMPDEST SWAP2 POP PUSH32 0xFFFFFFFFFFFFFFFFFFFFFFFFFFFFFFFFFFFFFFFFFFFFFFFFFFFFFFFFFFFFFFFF DUP3 SUB PUSH2 0x5EE JUMPI PUSH2 0x5ED PUSH2 0x582 JUMP JUMPDEST JUMPDEST PUSH1 0x1 DUP3 ADD SWAP1 POP SWAP2 SWAP1 POP JUMP JUMPDEST PUSH1 0x0 DUP3 DUP3 MSTORE PUSH1 0x20 DUP3 ADD SWAP1 POP SWAP3 SWAP2 POP POP JUMP JUMPDEST PUSH32 0x46756E64206973206E6F7420656E6F7567680000000000000000000000000000 PUSH1 0x0 DUP3 ADD MSTORE POP JUMP JUMPDEST PUSH1 0x0 PUSH2 0x640 PUSH1 0x12 DUP4 PUSH2 0x5F9 JUMP JUMPDEST SWAP2 POP PUSH2 0x64B DUP3 PUSH2 0x60A JUMP JUMPDEST PUSH1 0x20 DUP3 ADD SWAP1 POP SWAP2 SWAP1 POP JUMP JUMPDEST PUSH1 0x0 PUSH1 0x20 DUP3 ADD SWAP1 POP DUP2 DUP2 SUB PUSH1 0x0 DUP4 ADD MSTORE PUSH2 0x66F DUP2 PUSH2 0x633 JUMP JUMPDEST SWAP1 POP SWAP2 SWAP1 POP JUMP JUMPDEST PUSH1 0x0 PUSH2 0x681 DUP3 PUSH2 0x40C JUMP JUMPDEST SWAP2 POP PUSH2 0x68C DUP4 PUSH2 0x40C JUMP JUMPDEST SWAP3 POP DUP3 DUP3 ADD SWAP1 POP DUP1 DUP3 GT ISZERO PUSH2 0x6A4 JUMPI PUSH2 0x6A3 PUSH2 0x582 JUMP JUMPDEST JUMPDEST SWAP3 SWAP2 POP POP JUMP JUMPDEST PUSH1 0x0 PUSH2 0x6B5 DUP3 PUSH2 0x40C JUMP JUMPDEST SWAP2 POP PUSH2 0x6C0 DUP4 PUSH2 0x40C JUMP JUMPDEST SWAP3 POP DUP3 DUP3 MUL PUSH2 0x6CE DUP2 PUSH2 0x40C JUMP JUMPDEST SWAP2 POP DUP3 DUP3 DIV DUP5 EQ DUP4 ISZERO OR PUSH2 0x6E5 JUMPI PUSH2 0x6E4 PUSH2 0x582 JUMP JUMPDEST JUMPDEST POP SWAP3 SWAP2 POP POP JUMP JUMPDEST PUSH32 0x4E487B7100000000000000000000000000000000000000000000000000000000 PUSH1 0x0 MSTORE PUSH1 0x12 PUSH1 0x4 MSTORE PUSH1 0x24 PUSH1 0x0 REVERT JUMPDEST PUSH1 0x0 PUSH2 0x726 DUP3 PUSH2 0x40C JUMP JUMPDEST SWAP2 POP PUSH2 0x731 DUP4 PUSH2 0x40C JUMP JUMPDEST SWAP3 POP DUP3 PUSH2 0x741 JUMPI PUSH2 0x740 PUSH2 0x6EC JUMP JUMPDEST JUMPDEST DUP3 DUP3 DIV SWAP1 POP SWAP3 SWAP2 POP POP JUMP JUMPDEST PUSH1 0x0 PUSH10 0xFFFFFFFFFFFFFFFFFFFF DUP3 AND SWAP1 POP SWAP2 SWAP1 POP JUMP JUMPDEST PUSH2 0x76B DUP2 PUSH2 0x74C JUMP JUMPDEST DUP2 EQ PUSH2 0x776 JUMPI PUSH1 0x0 DUP1 REVERT JUMPDEST POP JUMP JUMPDEST PUSH1 0x0 DUP2 MLOAD SWAP1 POP PUSH2 0x788 DUP2 PUSH2 0x762 JUMP JUMPDEST SWAP3 SWAP2 POP POP JUMP JUMPDEST PUSH1 0x0 DUP2 SWAP1 POP SWAP2 SWAP1 POP JUMP JUMPDEST PUSH2 0x7A1 DUP2 PUSH2 0x78E JUMP JUMPDEST DUP2 EQ PUSH2 0x7AC JUMPI PUSH1 0x0 DUP1 REVERT JUMPDEST POP JUMP JUMPDEST PUSH1 0x0 DUP2 MLOAD SWAP1 POP PUSH2 0x7BE DUP2 PUSH2 0x798 JUMP JUMPDEST SWAP3 SWAP2 POP POP JUMP JUMPDEST PUSH1 0x0 DUP2 MLOAD SWAP1 POP PUSH2 0x7D3 DUP2 PUSH2 0x4D0 JUMP JUMPDEST SWAP3 SWAP2 POP POP JUMP JUMPDEST PUSH1 0x0 DUP1 PUSH1 0x0 DUP1 PUSH1 0x0 PUSH1 0xA0 DUP7 DUP9 SUB SLT ISZERO PUSH2 0x7F5 JUMPI PUSH2 0x7F4 PUSH2 0x440 JUMP JUMPDEST JUMPDEST PUSH1 0x0 PUSH2 0x803 DUP9 DUP3 DUP10 ADD PUSH2 0x779 JUMP JUMPDEST SWAP6 POP POP PUSH1 0x20 PUSH2 0x814 DUP9 DUP3 DUP10 ADD PUSH2 0x7AF JUMP JUMPDEST SWAP5 POP POP PUSH1 0x40 PUSH2 0x825 DUP9 DUP3 DUP10 ADD PUSH2 0x7C4 JUMP JUMPDEST SWAP4 POP POP PUSH1 0x60 PUSH2 0x836 DUP9 DUP3 DUP10 ADD PUSH2 0x7C4 JUMP JUMPDEST SWAP3 POP POP PUSH1 0x80 PUSH2 0x847 DUP9 DUP3 DUP10 ADD PUSH2 0x779 JUMP JUMPDEST SWAP2 POP POP SWAP3 SWAP6 POP SWAP3 SWAP6 SWAP1 SWAP4 POP JUMP JUMPDEST PUSH1 0x0 PUSH2 0x85F DUP3 PUSH2 0x78E JUMP JUMPDEST SWAP2 POP PUSH2 0x86A DUP4 PUSH2 0x78E JUMP JUMPDEST SWAP3 POP DUP3 DUP3 MUL PUSH2 0x878 DUP2 PUSH2 0x78E JUMP JUMPDEST SWAP2 POP PUSH32 0x8000000000000000000000000000000000000000000000000000000000000000 DUP5 EQ PUSH1 0x0 DUP5 SLT AND ISZERO PUSH2 0x8B0 JUMPI PUSH2 0x8AF PUSH2 0x582 JUMP JUMPDEST JUMPDEST DUP3 DUP3 SDIV DUP5 EQ DUP4 ISZERO OR PUSH2 0x8C5 JUMPI PUSH2 0x8C4 PUSH2 0x582 JUMP JUMPDEST JUMPDEST POP SWAP3 SWAP2 POP POP JUMP INVALID LOG2 PUSH5 0x6970667358 0x22 SLT KECCAK256 0xE1 0xCF 0xCD KECCAK256 0xED COINBASE CODESIZE 0xDF SDIV PUSH30 0xFD3C2BBC85A0291D44FDA8422A394DC2F0DCE31BAFB064736F6C63430008 GT STOP CALLER "
				},
				"gasEstimates": {
					"creation": {
						"codeDepositCost": "461200",
						"executionCost": "22605",
						"totalCost": "483805"
					},
					"external": {
						"addressToAmountFunded(address)": "2836",
						"fund()": "infinite",
						"funders(uint256)": "5022",
						"minimumUsd()": "2407",
						"withdraw()": "infinite"
					}
				},
				"methodIdentifiers": {
					"addressToAmountFunded(address)": "3e47d6f3",
					"fund()": "b60d4288",
					"funders(uint256)": "dc0d3dff",
					"minimumUsd()": "098de820",
					"withdraw()": "3ccfd60b"
				}
			},
			"storageLayout": {
				"storage": [
					{
						"astId": 56,
						"contract": "contracts/FundMe.sol:FundMe",
						"label": "minimumUsd",
						"offset": 0,
						"slot": "0",
						"type": "t_uint256"
					},
					{
						"astId": 59,
						"contract": "contracts/FundMe.sol:FundMe",
						"label": "funders",
						"offset": 0,
						"slot": "1",
						"type": "t_array(t_address)dyn_storage"
					},
					{
						"astId": 63,
						"contract": "contracts/FundMe.sol:FundMe",
						"label": "addressToAmountFunded",
						"offset": 0,
						"slot": "2",
						"type": "t_mapping(t_address,t_uint256)"
					}
				],
				"types": {
					"t_address": {
						"encoding": "inplace",
						"label": "address",
						"numberOfBytes": "20"
					},
					"t_array(t_address)dyn_storage": {
						"base": "t_address",
						"encoding": "dynamic_array",
						"label": "address[]",
						"numberOfBytes": "32"
					},
					"t_mapping(t_address,t_uint256)": {
						"encoding": "mapping",
						"key": "t_address",
						"label": "mapping(address => uint256)",
						"numberOfBytes": "32",
						"value": "t_uint256"
					},
					"t_uint256": {
						"encoding": "inplace",
						"label": "uint256",
						"numberOfBytes": "32"
					}
				}
			},
			"userdoc": {
				"kind": "user",
				"methods": {},
				"version": 1
			}
		}
	}
}